:100000000C9468000C9485000C9485000C94850079
:100010000C9485000C9485000C9485000C9485004C
:100020000C9485000C9417030C9485000C948500A7
:100030000C9485000C9485000C9485000C9485002C
:100040000C9485000C9485000C9485000C9485001C
:100050000C9485000C9485000C9485000C9485000C
:100060000C9485000C9485001405690469046904E6
:100070006904690469046904690469046904690418
:100080006904690492046904A104B104F304C1047D
:10009000D2046904E204690469046904140553077D
:1000A0002707650727072707270727074A0727077F
:1000B000530727072707270727075C075C074A0717
:1000C0002707530727072707270727075C075C072A
:1000D00011241FBECFEFD8E0DEBFCDBF11E0A0E0FE
:1000E000B1E0E0E3FFE002C005900D92A23AB10753
:1000F000D9F722E0A2EAB1E001C01D92AB31B2070C
:10010000E1F70E9411070C9496070C940000CF931E
:10011000DF9384B1836084B985B18C7F85B98AB15E
:10012000837E8AB98BB18C618BB985B78F7E85BF91
:100130008AB1806E8AB987B18F6387B91092A201A4
:100140001092C401E7ECF1E0A3EAB1E08EEB91E09C
:10015000EF01229718822196188210821D92339601
:10016000A817B907A9F7DF91CF9108958091A2014F
:100170008F5F8093A2018A3008F449C04C9B07C06E
:10018000E091C401F0E0ED55FE4F108207C0E09110
:10019000C401F0E0ED55FE4F81E080834B9B07C02A
:1001A000E091C401F0E0ED55FE4F118607C0E091EB
:1001B000C401F0E0ED55FE4F81E081874A9B07C006
:1001C000E091C401F0E0ED55FE4F128A07C0E091C6
:1001D000C401F0E0ED55FE4F81E0828B1092A20148
:1001E0008091C4018F5F893018F48093C40102C0EC
:1001F0001092C401299A0000000029980000000014
:100200008091C401883011F4289A01C02898809107
:10021000C40190E0FC01EE0FFF1F8E0F9F1FFC0139
:10022000EB53FE4F90818091A201891710F45F9AE1
:1002300001C05F988091C40190E0FC01EE0FFF1FA8
:100240008E0F9F1FFC01EB53FE4F91818091A20105
:10025000891710F45E9A01C05E988091C40190E005
:10026000FC01EE0FFF1F8E0F9F1FFC01EB53FE4F93
:1002700092818091A201891710F45D9A01C05D9866
:100280008091C40190E00996FC01EE0FFF1F8E0FD4
:100290009F1FFC01EB53FE4F90818091A2018917B3
:1002A00010F4459A01C045988091C40190E00996E8
:1002B000FC01EE0FFF1F8E0F9F1FFC01EB53FE4F43
:1002C00091818091A201891710F4449A01C0449849
:1002D0008091C40190E00996FC01EE0FFF1F8E0F84
:1002E0009F1FFC01EB53FE4F92818091A201891761
:1002F00010F4439A01C043988091C40190E0429663
:10030000FC01EE0FFF1F8E0F9F1FFC01EB53FE4FF2
:1003100090818091A201891710F4429A01C04298FD
:100320008091C40190E04296FC01EE0FFF1F8E0FFA
:100330009F1FFC01EB53FE4F91818091A201891711
:1003400010F4419A01C041988091C40190E0429616
:10035000FC01EE0FFF1F8E0F9F1FFC01EB53FE4FA2
:1003600092818091A201891710F4409A08954098D3
:100370000895E7ECF1E088E192E0DF0112971C922A
:1003800011961C9210823396E817F907B1F7089579
:100390008F929F92AF92BF92CF92DF92EF92FF9295
:1003A0000F931F93CF93DF93CDB7DEB76B970FB645
:1003B000F894DEBF0FBECDBF6B017C010F2EF3EAB8
:1003C000AF2EF1E0BF2EF02DAE014F5F5F4F2EEB51
:1003D00031E0DA01F50181918D93E217F307D9F746
:1003E0001C141D041E041F045CF18EE136C08E2F08
:1003F000841B9D91992319F09081992371F1319675
:10040000E017F107A1F7A82DB92DE72FF62F81915D
:100410008D93E217F307D9F78FEF90E7E2E0815071
:100420009040E040E1F700C0000083E3C81AD10823
:10043000E108F1081C141D041E041F0444F00CC044
:100440008E01045E1F4F842E952E7A2D6B2DE82D84
:10045000F92DA72FB62FCBCF8EE16B960FB6F89460
:10046000DEBF0FBECDBFDF91CF911F910F91FF90E7
:10047000EF90DF90CF90BF90AF909F908F900895B6
:10048000CF92DF92FF920F931F93CF93DF9390E071
:10049000FC01EE0FFF1FE80FF91FEB53FE4F7081B9
:1004A0005181F280A3E0B0E0FC01EE0FFF1FE80FE6
:1004B000F91FEB53FE4F8F010F5F1F4F6F0132E0AB
:1004C000C30ED11C6083E8014883E6012883DFEF77
:1004D00031EEC4E0D1503040C040E1F700C0000030
:1004E0007083E8015883E601F882DFEF31EEC4E063
:1004F000D1503040C040E1F700C00000119711F723
:10050000FC01EE0FFF1F8E0F9F1FFC01EB53FE4FF0
:10051000608341832283DF91CF911F910F91FF90E0
:10052000DF90CF900895AF92BF92DF92EF92FF924B
:100530000F931F93CF93DF9390E0FC01EE0FFF1F0B
:10054000E80FF91FEB53FE4FD0805181728110E00C
:10055000101611068CF5E0E0F0E0DC01AA0FBB1FDD
:10056000A80FB91FAB53BE4F7D013FEFE31AF30A4B
:100570005D01C2E0AC0EB11C6C93E7014883E5015C
:100580002883DFEF31EEC4E0D1503040C040E1F7C6
:1005900000C00000DC92E7015883E5017883DFEFBB
:1005A00031EEC4E0D1503040C040E1F700C000005F
:1005B0003196E017F10701F7FC01EE0FFF1F8E0FD8
:1005C0009F1FFC01EB53FE4F608341832283DF9129
:1005D000CF911F910F91FF90EF90DF90BF90AF9060
:1005E000089583E08093B0008AE08093B1008CE7A7
:1005F0008093B30081E0809370001092B6007894ED
:100600001092C0011092C1011092C2011092C30158
:1006100010921602109217021092180210921902EC
:100620001092BF011092BE0110921A0208951F92FB
:100630000F920FB60F9211242F933F934F935F9316
:100640006F937F938F939F93AF93BF93EF93FF939A
:1006500080911A028F5F803118F480931A023AC099
:1006600010921A028091C0019091C101A091C20123
:10067000B091C3010196A11DB11D8093C00190935B
:10068000C101A093C201B093C3018091BE019091BA
:10069000BF010196883E23E092072CF49093BF019E
:1006A0008093BE0117C01092BF011092BE018091CD
:1006B000160290911702A0911802B09119020196AA
:1006C000A11DB11D8093160290931702A0931802EA
:1006D000B09319020E94B600FF91EF91BF91AF91C4
:1006E0009F918F917F916F915F914F913F912F914A
:1006F0000F900FBE0F901F901895EF92FF920F93DF
:100700001F93CF93DF93C0E0D0E00EC0F80161915A
:100710008F01CE010E9488072196CE15DF05B1F723
:10072000E701CC30D10541F08E0100501F4F7E0112
:10073000F3E0EF0EF11CEACFDF91CF911F910F9103
:10074000FF90EF900895EF92FF920F931F93CF9336
:10075000DF93C0E0D0E00EC0CE010E948007F80118
:1007600081938F012196CE15DF05B1F7E701CC30DB
:10077000D10541F08E0100501F4F7E01F3E0EF0ED6
:10078000F11CEACFDF91CF911F910F91FF90EF9075
:1007900008952F923F924F925F926F927F928F9225
:1007A0009F92AF92BF92CF92DF92EF92FF920F9300
:1007B0001F93CF93DF930E94B901C0E0D1E001E025
:1007C0002A814981688182E10E94930202E02D81A1
:1007D0004C816B8184E10E94930203E028854F8164
:1007E0006E818AE10E94930204E02B854A85698527
:1007F00088E10E949302E5ECF1E08AE08487858736
:1008000086E0868760E27EE480E090E00E94C80196
:100810008431B9F030F4843009F40CC1823149F0EC
:10082000F1CF8A31B1F08E3109F404C18831C9F0B9
:10083000E9CF20E040E060E082E10E944002C0E0B9
:1008400017C020E040E060E084E10E944002C1E087
:100850000FC020E040E060E08AE10E944002C2E078
:1008600007C020E040E060E088E10E944002C3E071
:10087000D0E0FE01EE0FFF1FEC0FFD1FE050FF4F19
:100880005080618072800E94B90105EC11E00F2E4A
:10089000FAE04F2EF02D0F2EF5E08F2EF2E09F2E76
:1008A000F02D0F2EFBE0AF2EF2E0BF2EF02D0F2E1D
:1008B000FFE0CF2EF2E0DF2EF02D0F2EF5E1EF2E30
:1008C000F2E0FF2EF02D0F2EF9E02F2EF2E03F2E5A
:1008D000F02D21E0F80126AB44AEF4012083F501B0
:1008E0004082F6012083F7014082E7E0F2E0508287
:1008F000E8E0F2E06082F1017082F801448645860A
:1009000026E0268760E27EE480E090E00E94C80155
:1009100090E0FC013497EB31F105D8F6EC5CFF4F29
:100920000C947A075520A9F25A94F80146AAFFEFD1
:1009300021EE84E0F15020408040E1F700C000004B
:10094000C8CF99E0951528F25394F80114AEFFEF43
:1009500021EE84E0F15020408040E1F700C000002B
:10096000B8CF662009F4B5CF6A94F4014082FFEF56
:1009700021EE84E0F15020408040E1F700C000000B
:10098000A8CF99E0961508F4A4CF6394F5011082DE
:10099000FFEF21EE84E0F15020408040E1F700C0FD
:1009A000000097CF772009F494CF7A94F601408223
:1009B000FFEF21EE84E0F15020408040E1F700C0DD
:1009C000000087CF99E0971508F483CF7394F7015F
:1009D0001082FFEF21EE84E0F15020408040E1F7EB
:1009E00000C0000076CF51100BC0611009C071101B
:1009F00007C0242D442D642D86E10E94400269CF5A
:100A000001E020E040E060E086E10E949302FE0108
:100A1000EE0FFF1FEC0FFD1FE050FF4F5082618271
:100A200072820E947D0306C020E040E060E084E026
:100A30000E944002DF91CF911F910F91FF90EF90A4
:100A4000DF90CF90BF90AF909F908F907F906F90EE
:100A50005F904F903F902F900895CF93DF93A1E147
:100A6000B1E061E0FD013297208130E0F901EE0F45
:100A7000FF1FE20FF31FEB53FE4F4081FD01319743
:100A8000808190E0FC01EE0FFF1FE80FF91FEB5390
:100A9000FE4F508145134CC0CC91D0E0FE01EE0FCB
:100AA000FF1FEC0FFD1FEB53FE4F5081451340C05D
:100AB000F901EE0FFF1FE20FF31FEB53FE4F5181C1
:100AC000FC01EE0FFF1FE80FF91FEB53FE4F718182
:100AD00057132EC0FE01EE0FFF1FEC0FFD1FEB534F
:100AE000FE4F7181571324C0F901EE0FFF1F2E0F27
:100AF0003F1FF901EB53FE4F2281FC01EE0FFF1F58
:100B00008E0F9F1FFC01EB53FE4F8281281310C0F4
:100B1000FE01EE0FFF1FEC0FFD1FEB53FE4F828116
:100B2000281306C041110BC051110BC021110BC07D
:100B30006F5F1396623309F095CF80E005C0862F72
:100B400003C0862F01C0862FDF91CF9108958F9229
:100B50009F92AF92BF92CF92DF92EF92FF920F934C
:100B60001F93CF93DF93CDB7DEB7C25AD1090FB62B
:100B7000F894DEBF0FBECDBF0F2EF7ECAF2EF1E025
:100B8000BF2EF02D6E0123E0C20ED11C7E0184E544
:100B9000E80EF11C8701C701F601B5019B01225047
:100BA0003109D9012C91AF0142505109DA012C933E
:100BB000AC0142505109DA012C939B0121503109BB
:100BC000D9012C91AF0141505109DA012C93AC01AC
:100BD00041505109DA012C93DB012C912083DC0177
:100BE0002C936D5F7F4F33960396E017F107B1F6B4
:100BF0000E942D0581110EC09E012B553F4FF7011C
:100C0000DF0112971C9211961C9210823396E21704
:100C1000F307B1F790E0FC01EE0FFF1FE80FF91F9B
:100C2000E45FFE4F808190E09C01220F331F280F6C
:100C3000391F82E590E08C0F9D1F280F391FD901C5
:100C40001C92818190E0DC01AA0FBB1FA80FB91F85
:100C500082E590E08C0F9D1FA80FB91F1C92828126
:100C600090E0FC01EE0FFF1FE80FF91F42E550E096
:100C70004C0F5D1F4E0F5F1FFA011082F9011182A8
:100C800011961C921197FA011182F90112821296A3
:100C90001C92DA0112961C9265E0AE014B555F4F33
:100CA0007B2D4EC0C40102979F0122503109D9010A
:100CB0002C91DC012C9301969F0121503109D9011F
:100CC0002C91DC012C938081D4018C933396B3E07A
:100CD0008B0E911CE417F50729F7EFEFF3EC29E0F1
:100CE000E150F0402040E1F700C000008A2C972E30
:100CF000EC2DFD2DC40102979F0122503109D9012D
:100D00002C91DC012C9301969F0121503109D901CE
:100D10002C91DC012C938081D4018C933396B3E029
:100D20008B0E911CE017F10729F7EFEFF3EC29E0A8
:100D3000E150F0402040E1F700C00000615029F090
:100D40008A2C972EEE2DFF2DADCFCE55DF4F0FB64F
:100D5000F894DEBF0FBECDBFDF91CF911F910F91F1
:100D6000FF90EF90DF90CF90BF90AF909F908F90CB
:100D70000895CF93DF93D82F0E94B901C0E060ECB3
:100D800074ED81E090E00E94C801582F8C3118F07A
:100D90000E94A70543C0282F30E0F901EE0FFF1F86
:100DA000E20FF31FEB53FE4F8081811115C0F90153
:100DB000EE0FFF1FE20FF31FEB53FE4F81818111F6
:100DC0000BC0F901EE0FFF1F2E0F3F1FF901EB5370
:100DD000FE4F8281882311F0C1501AC08C2F6D2FD5
:100DE0000E946E07E92FF0E0CF01880F991FE80FEE
:100DF000F91FE050FF4F228141816081852F0E94C1
:100E000040020E942D05882319F00E94A70506C004
:100E1000CF5FCB3108F4B3CF0E94A705DF91CF910C
:100E200008950E94F1020E9487000E94A30305EC2E
:100E300011E0CAE00F2EF5E1CF2EF2E0DF2EF02D0B
:100E40000F2EF2E1EF2EF2E0FF2EF02DD6E00E9401
:100E5000B901F801C6ABC38FC5AFC2A3C783F60102
:100E6000C083F701C083F801C2ABC5ABC487C58797
:100E7000D68760E177E280E090E00E94C801482FC9
:100E800050E0FA013297E931F10508F7E15BFF4FD5
:100E90000C947A0720E040E060E00E94400282E08B
:100EA0000E94B906D4CF20E040E060E00E944002FA
:100EB00083E00E94B906CBCF20E040E060E00E94D2
:100EC000400284E00E94B906C2CF20E040E060E02A
:100ED00084E00E9440020E94C903B9CF991B79E0C7
:100EE00004C0991F961708F0961B881F7A95C9F7BA
:100EF00080950895EE0FFF1F0590F491E02D099461
:100F0000F999FECF92BD81BDF89A992780B50895D1
:100F1000262FF999FECF1FBA92BD81BD20BD0FB615
:100F2000F894FA9AF99A0FBE01960895F894FFCFB3
:100F30000A0000000A0000000A0A0A00000000007F
:100F40000102030405060708000306010407020561
:100F500008000408020406090A0B0C0D0E0F1011FC
:100F6000090C0F0A0D100B0E11090D110B0D0F12AC
:100F7000131415161718191A121518131619141711
:100F80001A12161A141618000912010A13020B1469
:100F9000030C15040D16050E17060F180710190877
:100FA000111A000A14020A12030D17050D15081074
:100FB0001806101A020E1A080E14010D10070D1350
:100FC000000C18060C12000D11120D08020D180667
:020FD0000D14FE
:00000001FF
