S00E000076656C6861332E73726563D3
S11300000C94D20E0C94EF0E0C94EF0E0C94EF0E95
S11300100C94EF0E0C94EF0E0C94EF0E0C94EF0E68
S11300200C94EF0E0C9481110C94EF0E0C94EF0EC3
S11300300C94EF0E0C94EF0E0C94EF0E0C94EF0E48
S11300400C94EF0E0C94EF0E0C94EF0E0C94EF0E38
S11300500C94EF0E0C94EF0E0C94EF0E0C94EF0E28
S11300600C94EF0E0C94EF0E7E13D312D312D31212
S1130070D312D312D312D312D312D312D312D31254
S1130080D312D312FC12D3120B131B135D132B13B5
S11300903C13D3124C13D312D312D3127E13F4177E
S11300A0BA170618BA17BA17FD17FD17EB17BA17C0
S11300B0F417BA17BA17BA17BA17BA17FD17EB1706
S11300C0BA17F417BA17BA17BA17E117BA17FD1700
S11300D0000000000000000000000000000000001C
S11300E0000000000000000000000000000000000C
S11300F000000000000000000000000000000000FC
S113010000000000000000000000000000000000EB
S113011000000000000000000000000000000000DB
S113012000000000000000000000000000000000CB
S113013000000000000000000000000000000000BB
S113014000000000000000000000000000000000AB
S11301500000000000000000000000000900090881
S1130160000000000000000000000000000000008B
S1130170000000000000000000000000000000007B
S1130180000000000000000000000000000000006B
S1130190000000000000000000000000000000005B
S11301A0000000000000000000000000000000004B
S11301B00000000000000906000600000000000026
S11301C0000000000000000000000000000000002B
S11301D00000000000000000000009000906000003
S11301E0000000000000000000000000000000000B
S11301F000000000000000000000000000000000FB
S113020000000000000000000000000000000000EA
S113021000000000000000000000000000000000DA
S113022000000000000000000000000000000000CA
S113023000000000000000000000000000000000BA
S113024000000000000000000000000000000000AA
S1130250000000000000000000000000000000009A
S1130260000000000000000000000000000000008A
S11302700007000004070000000008000008040054
S11302800003020000000003000000000000000062
S11302900000000000000000000000000302000055
S11302A0000003000003020300000000000000003F
S11302B0000000000000000000000000000000003A
S11302C0000000000000000000000000000000002A
S11302D0000000000000000000000000000000001A
S11302E000000000000800000000090800000000F1
S11302F000000000000000000000000000000000FA
S113030000000000000000000000000000000000E9
S113031000000007000704000000000007000704B5
S113032000000003020000030000000000000000C1
S1130330000000000007000700000400000006069B
S113034000000200000000000000000000000000A7
S11303500000000000000000000000000000000099
S11303600000000007000704000000000000000077
S11303700000000000000000000000000000000079
S11303800000000000000000000000000000000069
S11303900000000000000000000000000000000059
S11303A00000000000000000000000000000000049
S11303B00000000000000000000000000000000039
S11303C00000000000000000000000000000000029
S11303D00000000000000000000000000000000019
S11303E000000000080006060000000000000000F5
S11303F000000000000000000000000000000000F9
S113040000000000000000000000000000000000E8
S113041000000000000000000000000000000000D8
S113042000000000000000000000000000000000C8
S113043000000000000000000000000000000000B8
S113044000000000000000000000000000000000A8
S11304500000000000000000000000000000000098
S11304600000000000000000000000000000000088
S11304700000000000000000000000000000000078
S11304800000000000000000000000000000000068
S11304900000000000000800000404000000000048
S11304A00000000000000000000000000000000048
S11304B00000000000000000000000000000000038
S11304C00000000000000000000000000000000028
S11304D00000000000000000000000000000000018
S11304E000000000000000000007080700000000F2
S11304F000000000000000000000000000000000F8
S113050000000000000000000000000000000000E7
S113051000000000000000000000000000000000D7
S113052000000000000000000000000000000000C7
S113053000000000000000000000000000000000B7
S113054000000000000000000000000000000000A7
S11305500000000000000000000000000000000097
S11305600000000000000000000000000000000087
S1130570000000000000000900000009080000005D
S11305800000000000000000000000000000000067
S11305900000000008000606000000000000000043
S11305A0000000000000000000000000000000093E
S11305B00009080000000000000000000400000121
S11305C00000000100000000000000000000060020
S11305D00006000100000004000001000400000007
S11305E00000000000000000000000000000000007
S11305F000000000000000000000000300010000F3
S113060000030000000000000000000000000000E3
S113061000000000000000000000000000000000D6
S113062000000000000000000000000000000000C6
S113063000000000000000000000000000000000B6
S11306400000000000000800000404000000060090
S11306500003000300000000000000000000000090
S11306600007000008070000000606000300000061
S1130670000004030004000000000000000000006B
S11306800000000000000000000000000000000066
S11306900000000000000000000000000000000056
S11306A00000000000000000000000000000000046
S11306B00000000000000000000000000000000036
S11306C00000000007000004000400000000000017
S11306D00000000000000000000000000000000016
S11306E00000000000000000000000000000000006
S11306F000000000000000000000000000000000F6
S113070000000000000000000000000000000000E5
S113071000000000000000000000000000000700CE
S113072000080700000000000000000000000000B6
S113073000000000000000000000000000000000B5
S113074000000000000000000000000000000000A5
S11307500000000000000000000000000000000095
S11307600000000000000000000000000000000085
S1130770000000000000000000000800060800005F
S1130780000000090009060000000000000000004D
S11307900000000000000000000000000000000055
S11307A00000020100000000000100000000000041
S11307B0000000000201000000010000000201002E
S11307C00000000001000000000000000000000024
S11307D00000000000000000000000000000000015
S11307E00000000000000000000000000000000005
S11307F000000000000000000000000000000000F5
S113080000000000000000000000000000000000E4
S113081000000000000000000000070000040700C2
S113082000000000000000000000000000000000C4
S113083000000000000000000000000000000000B4
S113084000000000000000000000000000000000A4
S11308500000000000000000000000000000000094
S11308600000000000000000000000000000000084
S11308700000000000000000000000000000000074
S11308800000000000000000000000000000000064
S11308900000000000020100000000000100000050
S11308A00000000000000000000000000000000044
S11308B00000000000000000000000000900090022
S11308C00006000000090009000006000000000006
S11308D000000000000900000009000006000000FC
S11308E00000000000000201000100000000000000
S11308F000000000000000000000000000000000F4
S113090000040400020000000000000000000000D9
S113091000000000000000000000000000000000D3
S113092000000000000800000000000807000000AC
S113093000000000000000000000000000000000B3
S113094000000000000000000000000000000000A3
S11309500000000000000000000000000000000093
S11309600000000000000000000000000000000083
S1130970000008000608000000000000000000005D
S11309800000000000000000000000000000000063
S11309900000000000000000000000000000000053
S11309A00000000000000000000000000000000043
S11309B00000000000000000000000000000000033
S11309C00000000000000000000000000000000023
S11309D00000000000000000000000000000000013
S11309E00000000000000000000000000000000003
S11309F000000000000006000003000300000000E7
S1130A0000000800060800000000000900090600B4
S1130A1000000000000000000000000000000000D2
S1130A2000000000000000000000080800000000B2
S1130A3000010000000000000000000002010000AE
S1130A40000100000002010000000000020000009C
S1130A500000000000000000000000000000000092
S1130A600000000000000000000000000000000082
S1130A700000000000000000000000000000000072
S1130A800000000000000000000000000000000062
S1130A900000000000000000000000000000000052
S1130AA00000000000000000000000000000000042
S1130AB00000000000000000000000000000000032
S1130AC00000000000000000000000000000000022
S1130AD00000000000000000000000000000000012
S1130AE00000000000000000000000000000000002
S1130AF000000000000000000000000000000000F2
S1130B0000000000000000000000000000000000E1
S1130B1000000000000000000000000000000000D1
S1130B2000000000000000000000000000000007BA
S1130B3000000000000100010000000000000000AF
S1130B4000000000000000000000000000000000A1
S1130B500000000000000000000000000000000091
S1130B600000000000000000000000000000000081
S1130B700000000000000000000000000000000071
S1130B800000000000000000000006020000020057
S1130B900000000000000000000000000000000051
S1130BA00000000000090000000900000600000029
S1130BB00000000000000000000000000000000031
S1130BC00000000000000000000000000000000021
S1130BD00000000000000000000000000000000011
S1130BE00000000000000000000000000000000001
S1130BF000070807000008000000000807000000C4
S1130C0000000000000000000000000000000000E0
S1130C1000070000000002020000060300000300B9
S1130C2000000003060000030000000000000000B4
S1130C3000000000000000000000000000000000B0
S1130C4000000000000000000000000000000000A0
S1130C500000000000000000000000000000000090
S1130C600000000000000000000000000000000080
S1130C700000000000000000000000000000000070
S1130C800000000000000000000000000000000060
S1130C90000000000000000000000900090000043A
S1130CA0000007000000030007000000000000002F
S1130CB00000000007000000030007000000060019
S1130CC00400000600000000000000000000000412
S1130CD00600040000000000000000000000000006
S1130CE00000000000000000000000000000000000
S1130CF000000800000000000208000000000000DE
S1130D0000000000000000000000000000000000DF
S1130D1000000000000000000000000000000000CF
S1130D2000000000000000000000000000000000BF
S1130D30000007000000030003000800000000009A
S1130D400208000000000000000000000000000095
S1130D500000000000000000000000000000090086
S1130D600000000009020000070000000300030067
S1130D700800000000020200000000000000000063
S1130D80000000000000000000000000000000005F
S1130D90000000000000000000000000000000004F
S1130DA0000000000000000000000000000000003F
S1130DB0000000000000000000000000000000002F
S1130DC0000000000000000000000000000000001F
S1130DD0000000000000000000000000000000000F
S1130DE000000000000000000000000000000000FF
S1130DF000000000000000000000000000000000EF
S1130E0008000000000002020000000000000000D2
S1130E1000000000000000000000000000000000CE
S1130E2000000000000006000400000600000000AE
S1130E3000000000000000000000000000000000AE
S1130E40000000000000000000000000000000009E
S1130E50000000000000000000000000000000008E
S1130E60000000000000000000000000000000007E
S1130E70000000000000000000000000000000006E
S1130E800600040000040000000000000000000050
S1130E90000000000000000000000000000000004E
S1130EA0000000000000000000000000000000003E
S1130EB0000000000000000000000000000000002E
S1130EC0000000000000000000000000000000001E
S1130ED00000000000000000080200000000020002
S1130EE000000000000000000000000000000000FE
S1130EF000000000000000000000000000000000EE
S1130F0000000000000000000000000000000000DD
S1130F1000000000000000000007000004070000BB
S1130F200000080000080400000808000000000396
S1130F3000000000000000000000000000000000AD
S1130F40000000000302000000000200000302038E
S1130F50000000000000000000000000000000008D
S1130F60000000000000000000000000000000007D
S1130F70000000000000000000000000000000006D
S1130F80000000000000000000000000000000005D
S1130F900000000004000001000000010000000047
S1130FA0000000000000000000000000000000003D
S1130FB00000080000080400000000000000000019
S1130FC0000000000000000000000000000000001D
S1130FD0000000000000000000000000000000000D
S1130FE000000000000000000000000000000000FD
S1130FF000000000000000000000000000000000ED
S113100000000000000000000009000900000000CA
S113101000030000000000000000000000000000C9
S113102000000000000000000000000000000000BC
S113103000000000000000000000000000000000AC
S1131040000000000000000000000000000000009C
S1131050000000000000000000000000000000008C
S1131060000000000000000000000000000000007C
S1131070000000000000000000000000000000006C
S1131080000000000000000000000000000000005C
S1131090000000000000000000000000000000004C
S11310A0000000000000000000000000000000003C
S11310B0000000000000000000000000000000002C
S11310C0000000000000000000000000000000001C
S11310D0000000000000000000000000000000000C
S11310E000000000000000000000000000000000FC
S11310F000000000080000000000090800000009CA
S113110000000009080000000000000000000009C1
S113111000000000000202000000000000000000C7
S113112000000000000000000000000000000000BB
S1131130000004010001000000000002040002009D
S11311400000000000070007000004000000000089
S1131150000000000000000000000000000000008B
S1131160000000000000000000000000000000007B
S1131170000000000000000000000000000000006B
S1131180000000000000000000000000000000005B
S1131190000000000000000000000000000000004B
S11311A0000000000000000000000000000000003B
S11311B0000000000000000000000000000000002B
S11311C00000000000000000000000020400020013
S11311D0000000000000000000000000000000000B
S11311E000000000000000000000000000000000FB
S11311F000000000000000000000000000000000EB
S113120000000000000000000000000000000000DA
S113121000000000030200000000000200000000C3
S113122000000000000000000000000000000000BA
S11312300000000000000000000000000800060696
S1131240000000000000000000000000000000009A
S11312500000000000000009000908000000000070
S11312600000000004000001000000010000000074
S11312700000000000000400000100010000000460
S11312800000010001000000000000000000000058
S1131290000000000000000000000000000000004A
S11312A00000000009000000000009080000000020
S11312B0000000000000000000000000000000002A
S11312C0000000000000000000000000000000001A
S11312D0000000000000000000000000000000000A
S11312E000000000000000000000000000000000FA
S11312F000000000000900000000000908000000D0
S113130000000000000000000000000000000000D9
S113131000000000000000000000000000000000C9
S113132000000306000003000000000000000000AD
S113133000000000000000000000000000000000A9
S11313400000000000000000000000000000000099
S11313500000000000000000000000000000000089
S11313600000000000000000000000000000000079
S11313700000000000000000000000000900000060
S1131380000009080000000900000009080000002E
S1131390000000000000000900000000000908002F
S11313A00000000000000000000000000000000039
S11313B00000000000000000000004010001000023
S11313C00000000204000200000000000000000011
S11313D00000000000000000000000000000000009
S11313E000000000000000000000000000000000F9
S11313F000000000000000000000000000000000E9
S113140000000000000000000000000000000000D8
S113141000000000000000000000000000000302C3
S113142000000300000000000000000000000000B5
S113143000000000000000000000000000000000A8
S11314400000000000000000000000000000000098
S11314500000000000000000000000000000000088
S11314600000000000000000000000000000000078
S11314700000000000000006000600000300000059
S11314800000000000000000000000000000000058
S11314900000000000000000000000000000000048
S11314A00000000000000000000000000000000038
S11314B00000000000000000000000000000000028
S11314C00000000000000000000000060007060005
S11314D000000000070004040000000302000003F1
S11314E000000000000000000000000000070007EA
S11314F000000400000006060000020000000000D6
S113150000000000000000000000000000000000D7
S113151000000000000000000000000000000000C7
S113152000000000000000000000000000000000B7
S113153000000000000000000000000000000007A0
S11315400000000900070000000000000000000087
S11315500000000000000000000000000000000087
S11315600000000006000900000600000009000455
S1131570000004000000000000000000000900005A
S11315800009000006000000000000000000020145
S11315900001000000000000000000000000000046
S11315A0000000000000000000040400020000002D
S11315B00000000000000000000000000000000027
S11315C00000000002010000000100000000000013
S11315D00000000000000000000000000000000007
S11315E000000000000000000000000000000000F7
S11315F000000000000000000000000000000000E7
S113160000000000000000000000000000000000D6
S113161000000000000000000000000000000000C6
S113162000000000000000000000000000000000B6
S113163000000000000000000000000000000000A6
S11316400000000000000000000000000000000096
S1131650000000000003020300000000000000007E
S11316600000000000000000000000000000000076
S11316700000000000000000000000000000000066
S11316800000000000000000000000000000000056
S11316900000000000000000000000000000000046
S11316A00000000000000606000002000000000028
S11316B00000000000000000000000000000000026
S11316C00000000000000000000000000000000016
S11316D00000000000000000000000000000000006
S11316E000000000000000000000000000000000F6
S11316F000000000000000000000000000000000E6
S113170000000000000000000000000000000000D5
S113171000000000000000000000000000000000C5
S113172000000000000000000000000000000000B5
S113173000000000000000000000000000000000A5
S11317400000000000000000000000000000000095
S1131750000000000000000000040400020000007B
S11317600000000000000000000000000000000075
S11317700000000000000000000000000000000065
S11317800000000000000000000000000000000055
S11317900000000000000000000000000000000045
S11317A00000000000000000000000000000000035
S11317B00000000000000000000000000000000025
S11317C00000000000000000000000000000000015
S11317D000000000000000000006030003000000F9
S11317E000000000000000000000000000000000F5
S11317F000000000000000000000000000000800DD
S113180000040400000006000003000300000000C0
S113181000000000000000000007000008070000AE
S1131820000603000300000000000603000300009C
S113183000000000000000000000000000000000A4
S11318400000000000000000000000000000000094
S1131850000000000002010000000002000000007F
S11318600000000000000000000000000000000074
S11318700000000000000000000000000000000064
S11318800000000000000000000000000000000054
S11318900000000000000000000708070000070027
S11318A00000000807000000000000000000000025
S11318B0000000000000000000070000000008070E
S11318C000000602000002000000000306000003FE
S11318D00000000000000000000000000000000004
S11318E000000000000000000000000000000000F4
S11318F000000000000000000000000000000000E4
S113190000000000000000000000000000000000D3
S113191000000000000000000000000000000000C3
S113192000000000000000000000000000000000B3
S113193000000000000000000000000000000000A3
S11319400000000000000000000000000000000093
S11319500000000000000000000000000000000083
S1131960000000040100010000000000000000006D
S11319700000000000000000000000000000000063
S1131980000000000000000400040100000000004A
S11319900000000000000000000000000000000043
S11319A00000000000000000000000000000000033
S11319B00000000000000000000000000000000023
S11319C00000000000000000000000000000000013
S11319D00000000000000000000000000000000003
S11319E000020100010000000000000000000000EF
S11319F000000000000000000000000000000000E3
S1131A0000000000000000000000000000000000D2
S1131A1000000000000000000000000000000000C2
S1131A2000000000000000000000000000000000B2
S1131A3000000000000000000000000000000000A2
S1131A400000000000000000000000000000000092
S1131A500000000000000000000000000000000082
S1131A600000000000000000000000000000000072
S1131A700000000000000000000000000007000754
S1131A800407070000000800080804080003020017
S1131A900003000303000000000000000000000336
S1131AA00207000004070000060600000200060604
S1131AB00003020700030400000003020200020204
S1131AC000000000000700070407070000000000F2
S1131AD000000000000000090009090906000009CF
S1131AE000000909090300000000000000000007CD
S1131AF000000700000107070400000100090009B5
S1131B0008040004090000040004000006070003A0
S1131B100807000000000800080806080000000983
S1131B20000909090600000000000000000002018D
S1131B300000000900090600000000000000000089
S1131B400201000100000101000606000000090076
S1131B500606020100010009000006040400020058
S1131B600004040000030200000300030300000952
S1131B700000090909070201000000090009060024
S1131B800000000000000000000000000000000051
S1131B900008000800000008030800090900000903
S1131BA0000908030301000003000003000306000A
S1131BB0000308070000000000000000000000000F
S1131BC007060004030007000400060004000404E0
S1131BD000080700000003020300000000000000EA
S1131BE000000007070000000307070008000200C8
S1131BF002000202000007030003030003000404C0
S1131C0006000400040000030207000004070007A4
S1131C10000007000009070702010001000001019C
S1131C2000020702000000020002000000000000A1
S1131C30000000000000000000000000040100019A
S1131C40000000090803010101000001000007076A
S1131C50000700000807000006060000080006064A
S1131C600400000100090009080404000100000048
S1131C70040400090900000900090800000000002C
S1131C800000000004010001000000090800000039
S1131C900000000000000401010100010000000236
S1131CA00402020002000000000302070003040013
S1131CB000060006000001060006020100010009FA
S1131CC000000603030900000300000300000000F5
S1131CD000000000000701010100000100000401F0
S1131CE001010001000000000000000000000000ED
S1131CF003030603000300000000000808000808AE
S1131D000700000006070003080700040400080099
S1131D10000404000003060000030807000000009C
S1131D200000000000000707000700000807000289
S1131D300602020002000000030306030003000081
S1131D40000000000000000000000003020700097A
S1131D50040908030001010003030601020100074E
S1131D600009040706070107000002010701000833
S1131D700706000403020709030908000003090316
S1131D800403060100030009080904070700090900
S1131D900007020106010003080700050505050107
S1131DA00505050511241FBECFEFD8E0DEBFCDBF6A
S1131DB011E0A0E0B1E0E2E7F0E302C005900D928B
S1131DC0A23AB107D9F722E0A2EAB1E001C01D921C
S1131DD0AB31B207E1F70E949E170C9437180C94AC
S1131DE00000CF93DF9384B1836084B985B18C7F85
S1131DF085B98AB1837E8AB98BB18C618BB985B779
S1131E008F7E85BF8AB1806E8AB987B18F6387B9A7
S1131E101092A2011092C401E7ECF1E0A3EAB1E050
S1131E208EEB91E0EF01229718822196188210829E
S1131E301D923396A817B907A9F7DF91CF9108959A
S1131E408091A2018F5F8093A2018A3008F449C077
S1131E504C9B07C0E091C401F0E0ED55FE4F1082A9
S1131E6007C0E091C401F0E0ED55FE4F81E08083AE
S1131E704B9B07C0E091C401F0E0ED55FE4F118685
S1131E8007C0E091C401F0E0ED55FE4F81E0818789
S1131E904A9B07C0E091C401F0E0ED55FE4F128A61
S1131EA007C0E091C401F0E0ED55FE4F81E0828B64
S1131EB01092A2018091C4018F5F893018F480933D
S1131EC0C40102C01092C401299A0000000029989C
S1131ED0000000008091C401883011F4289A01C0E8
S1131EE028988091C40190E0FC01EE0FFF1F8E0F33
S1131EF09F1FFC01EB53FE4F90818091A201891733
S1131F0010F45F9A01C05F988091C40190E0FC01D5
S1131F10EE0FFF1F8E0F9F1FFC01EB53FE4F9181AD
S1131F208091A201891710F45E9A01C05E98809195
S1131F30C40190E0FC01EE0FFF1F8E0F9F1FFC01F8
S1131F40EB53FE4F92818091A201891710F45D9AA0
S1131F5001C05D988091C40190E00996FC01EE0FE8
S1131F60FF1F8E0F9F1FFC01EB53FE4F908180914A
S1131F70A201891710F4459A01C045988091C401C3
S1131F8090E00996FC01EE0FFF1F8E0F9F1FFC01CE
S1131F90EB53FE4F91818091A201891710F4449A6A
S1131FA001C044988091C40190E00996FC01EE0FB1
S1131FB0FF1F8E0F9F1FFC01EB53FE4F92818091F8
S1131FC0A201891710F4439A01C043988091C40177
S1131FD090E04296FC01EE0FFF1F8E0F9F1FFC0145
S1131FE0EB53FE4F90818091A201891710F4429A1D
S1131FF001C042988091C40190E04296FC01EE0F2A
S1132000FF1F8E0F9F1FFC01EB53FE4F91818091A8
S1132010A201891710F4419A01C041988091C4012A
S113202090E04296FC01EE0FFF1F8E0F9F1FFC01F4
S1132030EB53FE4F92818091A201891710F4409ACC
S1132040089540980895E7ECF1E088E192E0DF011B
S113205012971C9211961C9210823396E817F90776
S1132060B1F708958F929F92AF92BF92CF92DF9271
S1132070EF92FF920F931F93CF93DF93CDB7DEB709
S11320806B970FB6F894DEBF0FBECDBF6B017C011A
S11320900F2EF3EAAF2EF1E0BF2EF02DAE014F5F0D
S11320A05F4F2EEB31E0DA01F50181918D93E21758
S11320B0F307D9F71C141D041E041F045CF18EE100
S11320C036C08E2F841B9D91992319F090819923FA
S11320D071F13196E017F107A1F7A82DB92DE72F7B
S11320E0F62F81918D93E217F307D9F78FEF90E7DD
S11320F0E2E081509040E040E1F700C0000083E35B
S1132100C81AD108E108F1081C141D041E041F0498
S113211044F00CC08E01045E1F4F842E952E7A2D40
S11321206B2DE82DF92DA72FB62FCBCF8EE16B9613
S11321300FB6F894DEBF0FBECDBFDF91CF911F91D4
S11321400F91FF90EF90DF90CF90BF90AF909F9052
S11321508F900895CF92DF92FF920F931F93CF93A6
S1132160DF9390E0FC01EE0FFF1FE80FF91FEB5324
S1132170FE4F70815181F280A3E0B0E0FC01EE0FCC
S1132180FF1FE80FF91FEB53FE4F8F010F5F1F4F27
S11321906F0132E0C30ED11C6083E8014883E6017D
S11321A02883DFEF31EEC4E0D1503040C040E1F786
S11321B000C000007083E8015883E601F882DFEF75
S11321C031EEC4E0D1503040C040E1F700C000001F
S11321D0119711F7FC01EE0FFF1F8E0F9F1FFC01DB
S11321E0EB53FE4F608341832283DF91CF911F9194
S11321F00F91FF90DF90CF900895AF92BF92DF923E
S1132200EF92FF920F931F93CF93DF9390E0FC0123
S1132210EE0FFF1FE80FF91FEB53FE4FD0805181E3
S1132220728110E0101611068CF5E0E0F0E0DC019C
S1132230AA0FBB1FA80FB91FAB53BE4F7D013FEFC1
S1132240E31AF30A5D01C2E0AC0EB11C6C93E70122
S11322504883E5012883DFEF31EEC4E0D1503040FC
S1132260C040E1F700C00000DC92E7015883E501BB
S11322707883DFEF31EEC4E0D1503040C040E1F765
S113228000C000003196E017F10701F7FC01EE0FE2
S1132290FF1F8E0F9F1FFC01EB53FE4F6083418392
S11322A02283DF91CF911F910F91FF90EF90DF90E8
S11322B0BF90AF90089583E08093B0008AE080934C
S11322C0B1008CE78093B30081E08093700010929A
S11322D0B60078941092C0011092C1011092C2010C
S11322E01092C30110921602109217021092180253
S11322F0109219021092BF011092BE0110921A029C
S113230008951F920F920FB60F9211242F933F93AB
S11323104F935F936F937F938F939F93AF93BF93E9
S1132320EF93FF9380911A028F5F803118F48093AA
S11323301A023AC010921A028091C0019091C10110
S1132340A091C201B091C3010196A11DB11D80935A
S1132350C0019093C101A093C201B093C3018091C5
S1132360BE019091BF010196883E23E092072CF4B0
S11323709093BF018093BE0117C01092BF011092C9
S1132380BE018091160290911702A0911802B0919B
S113239019020196A11DB11D809316029093170294
S11323A0A0931802B09319020E94200FFF91EF919D
S11323B0BF91AF919F918F917F916F915F914F9159
S11323C03F912F910F900FBE0F901F901895EF9291
S11323D0FF920F931F93CF93DF93C0E0D0E00EC022
S11323E0F80161918F01CE010E9429182196CE1522
S11323F0DF05B1F7E701CC30D10541F08E01005083
S11324001F4F7E01F3E0EF0EF11CEACFDF91CF9175
S11324101F910F91FF90EF900895EF92FF920F9309
S11324201F93CF93DF93C0E0D0E00EC0CE010E9493
S11324302118F80181938F012196CE15DF05B1F79C
S1132440E701CC30D10541F08E0100501F4F7E01D1
S1132450F3E0EF0EF11CEACFDF91CF911F910F91C2
S1132460FF90EF9008952F923F924F925F926F9258
S11324707F928F929F92AF92BF92CF92DF92EF9210
S1132480FF920F931F93CF93DF930E942310C0E01A
S1132490D1E001E02A814981688182E10E94FD1036
S11324A002E02D814C816B8184E10E94FD1003E0E8
S11324B028854F816E818AE10E94FD1004E02B85FE
S11324C04A85698588E10E94FD10E5ECF1E08AE027
S11324D08487858786E0868760E27EE480E090E0FA
S11324E00E9432108431B9F030F4843009F40CC104
S11324F0823149F0F1CF8A31B1F08E3109F404C14F
S11325008831C9F0E9CF20E040E060E082E10E9438
S1132510AA10C0E017C020E040E060E084E10E941F
S1132520AA10C1E00FC020E040E060E08AE10E9410
S1132530AA10C2E007C020E040E060E088E10E9409
S1132540AA10C3E0D0E0FE01EE0FFF1FEC0FFD1F49
S1132550E050FF4F5080618072800E94231005EC90
S113256011E00F2EFAE04F2EF02D0F2EF5E08F2EF6
S1132570F2E09F2EF02D0F2EFBE0AF2EF2E0BF2EE7
S1132580F02D0F2EFFE0CF2EF2E0DF2EF02D0F2ED8
S1132590F5E1EF2EF2E0FF2EF02D0F2EF9E02F2EB5
S11325A0F2E03F2EF02D21E0F80126AB44AEF40119
S11325B02083F5014082F6012083F7014082E7E0A1
S11325C0F2E05082E8E0F2E06082F1017082F8010A
S11325D04486458626E0268760E27EE480E090E03B
S11325E00E94321090E0FC013497EB31F105D8F6EB
S11325F0EC5CFF4F0C941B185520A9F25A94F80177
S113260046AAFFEF21EE84E0F15020408040E1F73C
S113261000C00000C8CF99E0951528F25394F80142
S113262014AEFFEF21EE84E0F15020408040E1F74A
S113263000C00000B8CF662009F4B5CF6A94F40155
S11326404082FFEF21EE84E0F15020408040E1F72A
S113265000C00000A8CF99E0961508F4A4CF6394B5
S1132660F5011082FFEF21EE84E0F150204080401C
S1132670E1F700C0000097CF772009F494CF7A9453
S1132680F6014082FFEF21EE84E0F15020408040CB
S1132690E1F700C0000087CF99E0971508F483CFD5
S11326A07394F7011082FFEF21EE84E0F150204093
S11326B08040E1F700C0000076CF51100BC06110DC
S11326C009C0711007C0242D442D642D86E10E9499
S11326D0AA1069CF01E020E040E060E086E10E94BA
S11326E0FD10FE01EE0FFF1FEC0FFD1FE050FF4F2A
S11326F05082618272820E94E71106C020E040E0AD
S113270060E084E00E94AA10DF91CF911F910F91A5
S1132710FF90EF90DF90CF90BF90AF909F908F90FD
S11327207F906F905F904F903F902F900895CF933C
S1132730DF93A1E1B1E061E0FD013297208130E057
S1132740F901EE0FFF1FE20FF31FEB53FE4F408121
S1132750FD013197808190E0FC01EE0FFF1FE80F2F
S1132760F91FEB53FE4F508145134CC0CC91D0E080
S1132770FE01EE0FFF1FEC0FFD1FEB53FE4F5081C8
S1132780451340C0F901EE0FFF1FE20FF31FEB5397
S1132790FE4F5181FC01EE0FFF1FE80FF91FEB53B1
S11327A0FE4F718157132EC0FE01EE0FFF1FEC0F79
S11327B0FD1FEB53FE4F7181571324C0F901EE0F37
S11327C0FF1F2E0F3F1FF901EB53FE4F2281FC0127
S11327D0EE0FFF1F8E0F9F1FFC01EB53FE4F8281F4
S11327E0281310C0FE01EE0FFF1FEC0FFD1FEB536B
S11327F0FE4F8281281306C041110BC051110BC03A
S113280021110BC06F5F1396623309F095CF80E0FE
S113281005C0862F03C0862F01C0862FDF91CF917C
S113282008958F929F92AF92BF92CF92DF92EF92D0
S1132830FF920F931F93CF93DF93CDB7DEB7C25AA6
S1132840D1090FB6F894DEBF0FBECDBF0F2EF7EC43
S1132850AF2EF1E0BF2EF02D6E0123E0C20ED11C8D
S11328607E0184E5E80EF11C8701C701F601B5017C
S11328709B0122503109D9012C91AF0142505109D9
S1132880DA012C93AC0142505109DA012C939B01DB
S113289021503109D9012C91AF0141505109DA017C
S11328A02C93AC0141505109DA012C93DB012C919A
S11328B02083DC012C936D5F7F4F33960396E017E2
S11328C0F107B1F60E94971381110EC09E012B559A
S11328D03F4FF701DF0112971C9211961C92108250
S11328E03396E217F307B1F790E0FC01EE0FFF1FF8
S11328F0E80FF91FE45FFE4F808190E09C01220FF6
S1132900331F280F391F82E590E08C0F9D1F280F7D
S1132910391FD9011C92818190E0DC01AA0FBB1FF1
S1132920A80FB91F82E590E08C0F9D1FA80FB91F57
S11329301C92828190E0FC01EE0FFF1FE80FF91F4B
S113294042E550E04C0F5D1F4E0F5F1FFA011082ED
S1132950F901118211961C921197FA011182F90161
S1132960128212961C92DA0112961C9265E0AE0154
S11329704B555F4F7B2D4EC0C40102979F012250DF
S11329803109D9012C91DC012C9301969F0121502E
S11329903109D9012C91DC012C938081D4018C93D1
S11329A03396B3E08B0E911CE417F50729F7EFEF8C
S11329B0F3EC29E0E150F0402040E1F700C00000D2
S11329C08A2C972EEC2DFD2DC40102979F012250D5
S11329D03109D9012C91DC012C9301969F012150DE
S11329E03109D9012C91DC012C938081D4018C9381
S11329F03396B3E08B0E911CE017F10729F7EFEF44
S1132A00F3EC29E0E150F0402040E1F700C0000081
S1132A10615029F08A2C972EEE2DFF2DADCFCE5587
S1132A20DF4F0FB6F894DEBF0FBECDBFDF91CF915D
S1132A301F910F91FF90EF90DF90CF90BF90AF90D8
S1132A409F908F9008958F929F92AF92BF92CF9252
S1132A50DF92EF92FF920F931F93CF93DF930E9425
S1132A60231060E375E780E090E00E943210C82FE5
S1132A708D3118F00E9411148CC1282F30E0F90117
S1132A80EE0FFF1FE20FF31FEB53FE4F8081811106
S1132A90E8CFF901EE0FFF1FE20FF31FEB53FE4FD8
S1132AA081818111DECFF901EE0FFF1F2E0F3F1F31
S1132AB0F901EB53FE4F82818111D3CF00E011E085
S1132AC0F8012281418160818C2F0E94AA10C25199
S1132AD0D0E0FE01E556F24E8491F801258144814F
S1132AE063818F5E0E94AA1060E375E780E090E046
S1132AF00E943210082F8D3118F00E94111449C120
S1132B00282F30E0F901EE0FFF1FE20FF31FEB5304
S1132B10FE4F80818111E8CFF901EE0FFF1FE20F14
S1132B20F31FEB53FE4F81818111DECFF901EE0FCC
S1132B30FF1F2E0F3F1FF901EB53FE4F82818111BE
S1132B40D3CF0F2EF0E0EF2EF1E0FF2EF02DF701A2
S1132B50228141816081802F0E94AA100251802E1F
S1132B60912CFE01EE0FFF1FEE0FFF1FEE0FFF1F54
S1132B70EC0FFD1FE80DF91DE65BF24E8491F701A1
S1132B802581448163818F5E0E94AA1060E375E70A
S1132B9080E090E00E943210182F8D3118F00E94CE
S1132BA01114F7C0282F30E0F901EE0FFF1FE20FD8
S1132BB0F31FEB53FE4F80818111E8CFF901EE0F33
S1132BC0FF1FE20FF31FEB53FE4F81818111DECF14
S1132BD0F901EE0FFF1F2E0F3F1FF901EB53FE4FBC
S1132BE082818111D3CF0F2EF0E0CF2EF1E0DF2EC2
S1132BF0F02DF601228141816081812F0E94AA106B
S1132C008EEE810FE82EF12CF401EE0FFF1FEE0F74
S1132C10FF1FEE0FFF1FE80DF91D21E52C9FC001DA
S1132C202D9F900D1124E80FF91FEE0DFF1DEF5895
S1132C30F54E8491F6012581448163818F5E0E9463
S1132C40AA100E949713882319F00E941114A1C09E
S1132C5060E375E780E090E00E943210D82EFCE13A
S1132C60F81718F40E94111494C0282F30E0F901C9
S1132C70EE0FFF1FE20FF31FEB53FE4F8081811114
S1132C80E7CFF901EE0FFF1FE20FF31FEB53FE4FE7
S1132C9081818111DDCFF901EE0FFF1F2E0F3F1F40
S1132CA0F901EB53FE4F82818111D2CF0F2EF0E058
S1132CB0AF2EF1E0BF2EF02DF5012281418160811C
S1132CC08D2D0E94AA10F701EE0FFF1FEE0FFF1FBC
S1132CD0EE0FFF1FEE0DFF1D21E5289DC001299D6C
S1132CE0900D1124E80FF91F8EEE8D0DE80FF11DE4
S1132CF029ED32E0C29FC001C39F900DD29F900D79
S1132D001124E80FF91FE053FF4F8491F501258149
S1132D10448163818F5E0E94AA100E9497138823C6
S1132D2019F00E94111435C060E375E780E090E06B
S1132D300E9432108D3118F00E9411142AC0282FDD
S1132D4030E0F901EE0FFF1FE20FF31FEB53FE4FCC
S1132D5090819111E9CFF901EE0FFF1FE20FF31FEC
S1132D60EB53FE4F91819111DFCFF901EE0FFF1F5D
S1132D702E0F3F1FF901EB53FE4F92819111D4CFD7
S1132D80E0E0F1E02281418160810E94AA100E946A
S1132D901114DF91CF911F910F91FF90EF90DF906D
S1132DA0CF90BF90AF909F908F9008950F931F93F3
S1132DB0CF93DF93D82F813019F40E942315B9C023
S1132DC0823009F064C00E942310E5ECF1E081E058
S1132DD0808392E093838683818794878787928B0D
S1132DE0858B908F848F978F82A385A390A783A7C9
S1132DF096A781AB94ABC0E060EC74ED81E090E009
S1132E000E9432108C3118F00E94111492C0282FA5
S1132E1030E0F901EE0FFF1FE20FF31FEB53FE4FFB
S1132E209081911115C0F901EE0FFF1FE20FF31FFE
S1132E30EB53FE4F918191110BC0F901EE0FFF1F6F
S1132E402E0F3F1FF901EB53FE4F9281992311F08E
S1132E50C15016C00C2F017010E0F801EE0FFF1FD7
S1132E60E00FF11FE050FF4F2281418160810E94F9
S1132E70AA100E949713882319F00E94111459C0B4
S1132E80CF5FC93008F4B8CF0E94111452C00E9419
S1132E902310C0E060EC74ED81E090E00E943210F9
S1132EA0582F8C3118F00E94111443C0282F30E0A1
S1132EB0F901EE0FFF1FE20FF31FEB53FE4F80816A
S1132EC0811115C0F901EE0FFF1FE20FF31FEB5341
S1132ED0FE4F818181110BC0F901EE0FFF1F2E0FF0
S1132EE03F1FF901EB53FE4F8281882311F0C1503B
S1132EF01AC08C2F6D2F0E940F18E92FF0E0CF011C
S1132F00880F991FE80FF91FE050FF4F228141817C
S1132F106081852F0E94AA100E949713882319F0BC
S1132F200E94111406C0CF5FCB3108F4B3CF0E94C6
S1132F301114DF91CF911F910F9108950E945B119D
S1132F400E94F10E0E940D1205EC11E0CAE00F2E52
S1132F50F5E1AF2EF2E0BF2EF02D0F2EFDE0CF2EC7
S1132F60F2E0DF2EF02D0F2EFFE0EF2EF2E0FF2E29
S1132F70F02DD6E00E942310F801C6ABC38FC5AF75
S1132F80C2A3C783F501C083F801C5ABC28FC78B49
S1132F90F601C083F701C083F801C487C587D687CB
S1132FA060E177E280E090E00E943210482F50E028
S1132FB0FA013297E931F105E8F6E15BFF4F0C9431
S1132FC01B1820E040E060E088E10E94AA1081E044
S1132FD00E94D616CFCF20E040E060E00E94AA1005
S1132FE082E00E94D616C6CF20E040E060E00E9456
S1132FF0AA1083E00E94D616BDCF20E040E060E036
S11330000E94AA1084E00E94D616B4CF20E040E0CB
S113301060E084E00E94AA100E943312ABCF991B97
S113302079E004C0991F961708F0961B881F7A95BB
S1133030C9F780950895EE0FFF1F0590F491E02DD8
S11330400994F999FECF92BD81BDF89A992780B56C
S11330500895262FF999FECF1FBA92BD81BD20BDD8
S11330600FB6F894FA9AF99A0FBE01960895F89457
S1053070FFCF8C
S11330720A0000000A0000000A0A0A000000000018
S113308201020304050607080003060104070205FA
S113309208000408020406090A0B0C0D0E0F101195
S11330A2090C0F0A0D100B0E11090D110B0D0F1245
S11330B2131415161718191A1215181316191417AA
S11330C21A12161A141618000912010A13020B1402
S11330D2030C15040D16050E17060F180710190810
S11330E2111A000A14020A12030D17050D1508100D
S11330F21806101A020E1A080E14010D19070D13E0
S1133102000C18060C12000D1A120D08020D1806F6
S10531120D1496
S9030000FC
